{
  "_format": "hh-sol-artifact-1",
  "contractName": "TaskManager",
  "sourceName": "contracts/TaskManger.sol",
  "abi": [
    {
      "anonymous": false,
      "inputs": [
        {
          "indexed": true,
          "internalType": "address",
          "name": "user",
          "type": "address"
        },
        {
          "indexed": false,
          "internalType": "uint256",
          "name": "taskId",
          "type": "uint256"
        },
        {
          "indexed": false,
          "internalType": "string",
          "name": "description",
          "type": "string"
        }
      ],
      "name": "TaskAdded",
      "type": "event"
    },
    {
      "anonymous": false,
      "inputs": [
        {
          "indexed": true,
          "internalType": "address",
          "name": "user",
          "type": "address"
        },
        {
          "indexed": false,
          "internalType": "uint256",
          "name": "taskId",
          "type": "uint256"
        }
      ],
      "name": "TaskCompleted",
      "type": "event"
    },
    {
      "anonymous": false,
      "inputs": [
        {
          "indexed": true,
          "internalType": "address",
          "name": "user",
          "type": "address"
        },
        {
          "indexed": false,
          "internalType": "uint256",
          "name": "taskId",
          "type": "uint256"
        }
      ],
      "name": "TaskDeleted",
      "type": "event"
    },
    {
      "anonymous": false,
      "inputs": [
        {
          "indexed": true,
          "internalType": "address",
          "name": "user",
          "type": "address"
        },
        {
          "indexed": false,
          "internalType": "uint256",
          "name": "taskId",
          "type": "uint256"
        },
        {
          "indexed": false,
          "internalType": "string",
          "name": "description",
          "type": "string"
        },
        {
          "indexed": false,
          "internalType": "bool",
          "name": "isCompleted",
          "type": "bool"
        }
      ],
      "name": "TaskUpdated",
      "type": "event"
    },
    {
      "inputs": [
        {
          "internalType": "string",
          "name": "description",
          "type": "string"
        }
      ],
      "name": "addTask",
      "outputs": [],
      "stateMutability": "nonpayable",
      "type": "function"
    },
    {
      "inputs": [
        {
          "internalType": "uint256",
          "name": "taskId",
          "type": "uint256"
        }
      ],
      "name": "completeTask",
      "outputs": [],
      "stateMutability": "nonpayable",
      "type": "function"
    },
    {
      "inputs": [
        {
          "internalType": "uint256",
          "name": "taskId",
          "type": "uint256"
        }
      ],
      "name": "deleteTask",
      "outputs": [],
      "stateMutability": "nonpayable",
      "type": "function"
    },
    {
      "inputs": [],
      "name": "getTasks",
      "outputs": [
        {
          "components": [
            {
              "internalType": "uint256",
              "name": "id",
              "type": "uint256"
            },
            {
              "internalType": "string",
              "name": "description",
              "type": "string"
            },
            {
              "internalType": "bool",
              "name": "isCompleted",
              "type": "bool"
            }
          ],
          "internalType": "struct TaskManager.Task[]",
          "name": "",
          "type": "tuple[]"
        }
      ],
      "stateMutability": "view",
      "type": "function"
    },
    {
      "inputs": [
        {
          "internalType": "uint256",
          "name": "taskId",
          "type": "uint256"
        },
        {
          "internalType": "string",
          "name": "description",
          "type": "string"
        },
        {
          "internalType": "bool",
          "name": "isCompleted",
          "type": "bool"
        }
      ],
      "name": "updateTask",
      "outputs": [],
      "stateMutability": "nonpayable",
      "type": "function"
    }
  ],
  "bytecode": "0x608060405234801561001057600080fd5b50611493806100206000396000f3fe608060405234801561001057600080fd5b50600436106100565760003560e01c8062d5c4771461005b57806304a87e3814610077578063560f31921461009557806367238562146100b1578063e1e29558146100cd575b600080fd5b61007560048036038101906100709190610bad565b6100e9565b005b61007f610254565b60405161008c9190610dcb565b60405180910390f35b6100af60048036038101906100aa9190610ded565b6103a6565b005b6100cb60048036038101906100c69190610e1a565b6106d9565b005b6100e760048036038101906100e29190610ded565b61083a565b005b6000803373ffffffffffffffffffffffffffffffffffffffff1673ffffffffffffffffffffffffffffffffffffffff16815260200190815260200160002080549050831061016c576040517f08c379a000000000000000000000000000000000000000000000000000000000815260040161016390610ec0565b60405180910390fd5b60008060003373ffffffffffffffffffffffffffffffffffffffff1673ffffffffffffffffffffffffffffffffffffffff16815260200190815260200160002084815481106101be576101bd610ee0565b5b90600052602060002090600302019050828160010190816101df919061111b565b50818160020160006101000a81548160ff0219169083151502179055503373ffffffffffffffffffffffffffffffffffffffff167f6025791a11de64c82182396224c458963674801715033c37c1a41c3043a13b8c85858560405161024693929190611244565b60405180910390a250505050565b60606000803373ffffffffffffffffffffffffffffffffffffffff1673ffffffffffffffffffffffffffffffffffffffff168152602001908152602001600020805480602002602001604051908101604052809291908181526020016000905b8282101561039d5783829060005260206000209060030201604051806060016040529081600082015481526020016001820180546102f190610f3e565b80601f016020809104026020016040519081016040528092919081815260200182805461031d90610f3e565b801561036a5780601f1061033f5761010080835404028352916020019161036a565b820191906000526020600020905b81548152906001019060200180831161034d57829003601f168201915b505050505081526020016002820160009054906101000a900460ff161515151581525050815260200190600101906102b4565b50505050905090565b6000803373ffffffffffffffffffffffffffffffffffffffff1673ffffffffffffffffffffffffffffffffffffffff168152602001908152602001600020805490508110610429576040517f08c379a000000000000000000000000000000000000000000000000000000000815260040161042090610ec0565b60405180910390fd5b600060016000803373ffffffffffffffffffffffffffffffffffffffff1673ffffffffffffffffffffffffffffffffffffffff1681526020019081526020016000208054905061047991906112b1565b90508082146105f4576000803373ffffffffffffffffffffffffffffffffffffffff1673ffffffffffffffffffffffffffffffffffffffff16815260200190815260200160002081815481106104d2576104d1610ee0565b5b90600052602060002090600302016000803373ffffffffffffffffffffffffffffffffffffffff1673ffffffffffffffffffffffffffffffffffffffff16815260200190815260200160002083815481106105305761052f610ee0565b5b9060005260206000209060030201600082015481600001556001820181600101908161055c91906112fb565b506002820160009054906101000a900460ff168160020160006101000a81548160ff021916908315150217905550905050816000803373ffffffffffffffffffffffffffffffffffffffff1673ffffffffffffffffffffffffffffffffffffffff16815260200190815260200160002083815481106105de576105dd610ee0565b5b9060005260206000209060030201600001819055505b6000803373ffffffffffffffffffffffffffffffffffffffff1673ffffffffffffffffffffffffffffffffffffffff168152602001908152602001600020805480610642576106416113e3565b5b600190038181906000526020600020906003020160008082016000905560018201600061066f9190610988565b6002820160006101000a81549060ff0219169055505090553373ffffffffffffffffffffffffffffffffffffffff167fd1bc87501afcaa22b7f6481dac99ed45fbe02321873ca9b55c1f41b9d78b8fb3836040516106cd9190611412565b60405180910390a25050565b60008060003373ffffffffffffffffffffffffffffffffffffffff1673ffffffffffffffffffffffffffffffffffffffff1681526020019081526020016000208054905090506000803373ffffffffffffffffffffffffffffffffffffffff1673ffffffffffffffffffffffffffffffffffffffff16815260200190815260200160002060405180606001604052808381526020018481526020016000151581525090806001815401808255809150506001900390600052602060002090600302016000909190919091506000820151816000015560208201518160010190816107c3919061111b565b5060408201518160020160006101000a81548160ff02191690831515021790555050503373ffffffffffffffffffffffffffffffffffffffff167f793f49aab3b9e0d3125d745773b78ac45236f2beeed7c6296e60911e17a0de42828460405161082e92919061142d565b60405180910390a25050565b6000803373ffffffffffffffffffffffffffffffffffffffff1673ffffffffffffffffffffffffffffffffffffffff1681526020019081526020016000208054905081106108bd576040517f08c379a00000000000000000000000000000000000000000000000000000000081526004016108b490610ec0565b60405180910390fd5b60016000803373ffffffffffffffffffffffffffffffffffffffff1673ffffffffffffffffffffffffffffffffffffffff168152602001908152602001600020828154811061090f5761090e610ee0565b5b906000526020600020906003020160020160006101000a81548160ff0219169083151502179055503373ffffffffffffffffffffffffffffffffffffffff167ff684d89bb0f42287bf32838774e4b7f8a60c11804b3c6d1791fa55f3067926438260405161097d9190611412565b60405180910390a250565b50805461099490610f3e565b6000825580601f106109a657506109c5565b601f0160209004906000526020600020908101906109c491906109c8565b5b50565b5b808211156109e15760008160009055506001016109c9565b5090565b6000604051905090565b600080fd5b600080fd5b6000819050919050565b610a0c816109f9565b8114610a1757600080fd5b50565b600081359050610a2981610a03565b92915050565b600080fd5b600080fd5b6000601f19601f8301169050919050565b7f4e487b7100000000000000000000000000000000000000000000000000000000600052604160045260246000fd5b610a8282610a39565b810181811067ffffffffffffffff82111715610aa157610aa0610a4a565b5b80604052505050565b6000610ab46109e5565b9050610ac08282610a79565b919050565b600067ffffffffffffffff821115610ae057610adf610a4a565b5b610ae982610a39565b9050602081019050919050565b82818337600083830152505050565b6000610b18610b1384610ac5565b610aaa565b905082815260208101848484011115610b3457610b33610a34565b5b610b3f848285610af6565b509392505050565b600082601f830112610b5c57610b5b610a2f565b5b8135610b6c848260208601610b05565b91505092915050565b60008115159050919050565b610b8a81610b75565b8114610b9557600080fd5b50565b600081359050610ba781610b81565b92915050565b600080600060608486031215610bc657610bc56109ef565b5b6000610bd486828701610a1a565b935050602084013567ffffffffffffffff811115610bf557610bf46109f4565b5b610c0186828701610b47565b9250506040610c1286828701610b98565b9150509250925092565b600081519050919050565b600082825260208201905092915050565b6000819050602082019050919050565b610c51816109f9565b82525050565b600081519050919050565b600082825260208201905092915050565b60005b83811015610c91578082015181840152602081019050610c76565b60008484015250505050565b6000610ca882610c57565b610cb28185610c62565b9350610cc2818560208601610c73565b610ccb81610a39565b840191505092915050565b610cdf81610b75565b82525050565b6000606083016000830151610cfd6000860182610c48565b5060208301518482036020860152610d158282610c9d565b9150506040830151610d2a6040860182610cd6565b508091505092915050565b6000610d418383610ce5565b905092915050565b6000602082019050919050565b6000610d6182610c1c565b610d6b8185610c27565b935083602082028501610d7d85610c38565b8060005b85811015610db95784840389528151610d9a8582610d35565b9450610da583610d49565b925060208a01995050600181019050610d81565b50829750879550505050505092915050565b60006020820190508181036000830152610de58184610d56565b905092915050565b600060208284031215610e0357610e026109ef565b5b6000610e1184828501610a1a565b91505092915050565b600060208284031215610e3057610e2f6109ef565b5b600082013567ffffffffffffffff811115610e4e57610e4d6109f4565b5b610e5a84828501610b47565b91505092915050565b600082825260208201905092915050565b7f496e76616c6964205461736b2049440000000000000000000000000000000000600082015250565b6000610eaa600f83610e63565b9150610eb582610e74565b602082019050919050565b60006020820190508181036000830152610ed981610e9d565b9050919050565b7f4e487b7100000000000000000000000000000000000000000000000000000000600052603260045260246000fd5b7f4e487b7100000000000000000000000000000000000000000000000000000000600052602260045260246000fd5b60006002820490506001821680610f5657607f821691505b602082108103610f6957610f68610f0f565b5b50919050565b60008190508160005260206000209050919050565b60006020601f8301049050919050565b600082821b905092915050565b600060088302610fd17fffffffffffffffffffffffffffffffffffffffffffffffffffffffffffffffff82610f94565b610fdb8683610f94565b95508019841693508086168417925050509392505050565b6000819050919050565b600061101861101361100e846109f9565b610ff3565b6109f9565b9050919050565b6000819050919050565b61103283610ffd565b61104661103e8261101f565b848454610fa1565b825550505050565b600090565b61105b61104e565b611066818484611029565b505050565b5b8181101561108a5761107f600082611053565b60018101905061106c565b5050565b601f8211156110cf576110a081610f6f565b6110a984610f84565b810160208510156110b8578190505b6110cc6110c485610f84565b83018261106b565b50505b505050565b600082821c905092915050565b60006110f2600019846008026110d4565b1980831691505092915050565b600061110b83836110e1565b9150826002028217905092915050565b61112482610c57565b67ffffffffffffffff81111561113d5761113c610a4a565b5b6111478254610f3e565b61115282828561108e565b600060209050601f8311600181146111855760008415611173578287015190505b61117d85826110ff565b8655506111e5565b601f19841661119386610f6f565b60005b828110156111bb57848901518255600182019150602085019450602081019050611196565b868310156111d857848901516111d4601f8916826110e1565b8355505b6001600288020188555050505b505050505050565b6111f6816109f9565b82525050565b600061120782610c57565b6112118185610e63565b9350611221818560208601610c73565b61122a81610a39565b840191505092915050565b61123e81610b75565b82525050565b600060608201905061125960008301866111ed565b818103602083015261126b81856111fc565b905061127a6040830184611235565b949350505050565b7f4e487b7100000000000000000000000000000000000000000000000000000000600052601160045260246000fd5b60006112bc826109f9565b91506112c7836109f9565b92508282039050818111156112df576112de611282565b5b92915050565b6000815490506112f481610f3e565b9050919050565b8181036113095750506113e1565b611312826112e5565b67ffffffffffffffff81111561132b5761132a610a4a565b5b6113358254610f3e565b61134082828561108e565b6000601f83116001811461136f576000841561135d578287015490505b61136785826110ff565b8655506113da565b601f19841661137d87610f6f565b965061138886610f6f565b60005b828110156113b05784890154825560018201915060018501945060208101905061138b565b868310156113cd57848901546113c9601f8916826110e1565b8355505b6001600288020188555050505b5050505050505b565b7f4e487b7100000000000000000000000000000000000000000000000000000000600052603160045260246000fd5b600060208201905061142760008301846111ed565b92915050565b600060408201905061144260008301856111ed565b818103602083015261145481846111fc565b9050939250505056fea264697066735822122055f94c659f9e9c2fc43b33b52d3fbd97652f480e946a29f1e5e53bba0f7e747664736f6c63430008120033",
  "linkReferences": {},
  "deployedLinkReferences": {}
}